S00C00006D61696E2E7372656373
S11300000C945E040C9470040C9470040C947004AE
S11300100C9470040C9470040C9470040C9470048C
S11300200C9470040C9470040C9470040C9470047C
S11300300C9470040C9470040C9470040C9470046C
S11300400C9470040C9470040C9470040C9470045C
S11300500C9470040C9470040C9470040C9470044C
S11300600C9470040C947004253869002A2A2A2AF6
S11300702A2A2A2A2A2A2A2A2A2A2A2A002A4946CB
S1130080535020436174616E647576612A002A2A94
S11300902A2A2A2A2A2A2A2A2A2A2A2A2A2A00AE62
S11300A0E32000B0C8001040A4A1A681FFA83FD35C
S11300B000D5F0D922DA12DB208D14AF0000000045
S11300C0000000007E8195B1B195817E7EFFEBCF6B
S11300D0CFEBFF7E0E1F3F7E3F1F0E00081C3E7FAE
S11300E03E1C0800383A9FFF9F3A38001038BCFF86
S11300F0BC381000000000000000000000000000F8
S113010000000000000000000000000000000000EB
S11301100000000070F88888FD7F070F004E5FF133
S1130120F15F4E000000000000000000C0FF7F05EA
S113013005657F3F995A3CE7E73C5A997F3E3E1C50
S11301401C08080008081C1C3E3E7F00002466FFB3
S1130150FF662400005F5F00005F5F00060F097FF9
S11301607F017F7FDABFA5A5FD590302007070707F
S1130170707070008094B6FFFFB694800004067F10
S11301807F0604000010307F7F3010000808082A22
S11301903E1C0800081C3E2A080808003C3C20209D
S11301A020202000081C3E08083E1C0830383C3E35
S11301B03E3C3830060E1E3E3E1E0E060000000079
S11301C00000000000065F5F060000000007070053
S11301D007070000147F7F147F7F1400242E6B6BAD
S11301E03A120000466630180C666200307A4F5DA1
S11301F0377A48000407030000000000001C3E6337
S1130200410000000041633E1C000000082A3E1C1F
S11302101C3E2A0808083E3E0808000000A0E060D2
S113022000000000080808080808000000006060DA
S1130230000000006030180C060301003E7F594D99
S11302407F3E000042427F7F404000006273594974
S11302506F660000226349497F360000181C16139C
S11302607F7F1000276745457D3900003C7E4B4960
S113027079300000036371190F070000367F494984
S11302807F360000064F49693F1E000000006C6C79
S11302900000000000A0EC6C00000000081C3663A5
S11302A041000000141414141414000000416336B7
S11302B01C080000020351590F0600003E7F415DF7
S11302C05D1F1E007C7E13137E7C0000417F7F49EE
S11302D0497F36001C3E634141632200417F7F41D8
S11302E0637F1C00417F7F495D416300417F7F49FB
S11302F01D0103001C3E6341517372007F7F080897
S11303007F7F000000417F7F41000000307040414A
S11303107F3F0100417F7F081C776300417F7F415D
S1130320406070007F7F060C067F7F007F7F060C95
S1130330187F7F001C3E6341633E1C00417F7F4960
S1130340090F06001E3F21717F5E0000417F7F1967
S1130350396F460026674D597B32000003417F7F89
S1130360410300007F7F40407F7F00001F3F6060AB
S11303703F1F00007F7F3018307F7F0063771C08A9
S11303801C776300074F78784F0700006773594D57
S113039047637100007F7F41410000000103060CA8
S11303A0183060000041417F7F000000080C060304
S11303B0060C080080808080808080800000030715
S11303C004000000207454543C784000413F7F44B2
S11303D0447C3800387C44446C2800003078484918
S11303E03F7F4000387C54545C180000487E7F49AD
S11303F00302000098BCA4A4F87C0400417F7F0899
S1130400047C780000447D7D4000000040C484FDED
S11304107D000000417F7F10386C440000417F7FE5
S1130420400000007C7C0C180C7C78007C7C04046C
S11304307C780000387C44447C38000084FCF8A4B8
S1130440243C1800183C24A4F8FC8400447C784420
S11304501C180000485C54547424000000043E7FBF
S1130460442400003C7C40403C7C40001C3C6060D8
S11304703C1C00003C7C6030607C3C00446C3810C8
S1130480386C44009CBCA0A0FC7C00004C64745CF0
S11304904C64000008083E774141000000000077EA
S11304A0770000004141773E080800000203010381
S11304B002030100787C4643467C78001EBFE1615C
S11304C0331200003A7A40407A7A4000387C56571A
S11304D05D18000002237555557D7B4221755454E7
S11304E07D794000207557567C784000002277556E
S11304F0557F7A401CBEE26236140000023B7D55F3
S1130500555D1B02397D54545D190000387D5756E2
S11305105C18000001457C7C410100000203457D1C
S11305207D43020000457F7E40000000797D262641
S11305307D790000707A2D2D7A700000447C7E57FE
S113054055440000207454547C7C54547C7E0B0924
S11305507F7F4900327B49497B320000327A484828
S11305607A32000030794B4A783000003A7B4141BE
S11305707B7A40003879434278784000BABAA0A028
S1130580FA7A0000397D4444447D39003D7D404081
S11305907D3D0000387C64544C7C3800687E7F4983
S11305A0436620005C3E7349673E1D00446C383846
S11305B06C44000040C888FE7F090B022074565723
S11305C07D78400000447E7F410000003078484A36
S11305D07B310000387840427B7940007A7B090BFC
S11305E07A7301007A7B19337A7B010000262F2964
S11305F02F2F280000262F29292F260030784D453B
S1130600602000001C227D4B5B65221C0808080842
S113061038380000613F1FCCEEABB990613F1F4CEE
S11306206673D9F8000060FAFA600000081C3622EC
S1130630081C362222361C0822361C08AA00550043
S1130640AA005500AA55AA55AA55AA5555FFAAFFAE
S113065055FFAAFF000000FFFF000000101010FF6C
S1130660FF00000070782C2E7B71000072792D2D14
S113067079720000717B2E2C787000001C225D556D
S11306805541221C1414F7F700FFFF000000FFFF80
S113069000FFFF001414F4F404FCFC0014141717F6
S11306A0101F1F00183C24E7E72424002B2FFCFC18
S11306B02F2B0000101010F0F00000000000001FAD
S11306C01F1010101010101F1F101010101010F019
S11306D0F0101010000000FFFF1010101010101088
S11306E010101010101010FFFF1010102277555723
S11306F07E7B4100727B2D2F7A73010000001F1F47
S1130700101717140000FCFC04F4F4141414171745
S1130710101717141414F4F404F4F4140000FFFF75
S113072000F7F71414141414141414141414F7F70D
S113073000F7F714663C3C243C3C660005277257DE
S11307407D380000497F7F49637F1C00467D7D55CD
S113075055460000457D7C5455450000447D7F5638
S1130760544400000A0E08000000000000447E7F8C
S11307704500000002457D7D4502000001457C7C6A
S1130780450100001010101F1F000000000000F0C1
S1130790F0101010FFFFFFFFFFFFFFFFF0F0F0F07D
S11307A0F0F0F0F0000000777700000000457F7E55
S11307B0440000000F0F0F0F0F0F0F0F387C464738
S11307C0457C3800FCFE2A2A3E1400003A7D45454B
S11307D0457D3A00387C4547467C3800327B494B9E
S11307E07A3301003A7F4547467F390080FE7E20F8
S11307F0203E1E00427E7E541C080000417F7F552F
S1130800141C08003C7C42437D3C00003A79414181
S1130810793A00003C7D43427C3C0000B8B8A2A376
S1130820F97800000C5C72735D0C00000202020295
S1130830020200000000020301000000101010106A
S11308401010000044445F5F444400002828282816
S11308502828000071351F4C6673D9F8060F097FEC
S11308607F017F7FDABFA5A5FD59030208086B6BE2
S1130870080800000080C0400000000000060F09C6
S11308800F06000002020000020200000000001037
S1130890100000000012131F1F1010000011151586
S11308A01F1F0A0000191D151712000000003C3C10
S11308B03C3C0000000000000000000011241FBEAA
S11308C0CFEFD8E0DEBFCDBF21E0A0E0B1E001C0B2
S11308D01D92A330B207E1F70E9472040C9412082F
S11308E00C940000259A0E94650560E080E00E9457
S11308F028050F2EFEE8CF2EF0E0DF2EF02D0F2E70
S1130900FDE7EF2EF0E0FF2EF02D0CE610E0C8E638
S1130910D0E06894772475F8812C912C5401839449
S113092060E080E00E942805DF92CF920E94790661
S113093061E080E00E942805FF92EF920E94790610
S113094062E080E00E9428051F930F930E947906BD
S113095081E00E94850564E080E00E942805BF9242
S1130960AF929F928F92DF93CF930E94790680E09B
S11309700E9485059FEF21EE84E091502040804045
S1130980E1F700C0000085B1872585B99FEF891A7A
S1130990990AA90AB90A8DB79EB70C960FB6F894AE
S11309A09EBF0FBE8DBF9FEF891690EE990695EFFF
S11309B0A90695E0B90609F0B3CFAECF88B180633C
S11309C088B91092BC001092B9008CE08093B800F2
S11309D083ED90E30197F1F700C00000089584EAE5
S11309E08093BC0086E6ECEBF0E002C08150A1F0FD
S11309F090819923DCF788E78093BB0084E8809397
S1130A00BC0086E6ECEBF0E002C0815039F0908146
S1130A109923DCF780E0089581E0089581E008954A
S1130A208093BB0084E88093BC0086E6ECEBF0E0A6
S1130A3002C0815029F090819923DCF780E0089569
S1130A4081E00895ECEBF0E084E98083108208955E
S1130A50CF93DF93C82FD62F8093020160930101B7
S1130A600E94EF0480E00E9410058D2F806B0E948D
S1130A70100581E20E9410058C2F880F880F880FC3
S1130A800E9410058FE70E9410050E942205DF9145
S1130A90CF910895CF93DF9360E080E00E94280512
S1130AA00E94EF0480E40E941005C0E0D8E080E0DA
S1130AB00E9410052197D9F70E94220560E080E08A
S1130AC00E942805DF91CF9108950F931F93CF9330
S1130AD0DF930E94DE040E94EF0480E00E94100570
S1130AE0CFE9D0E00CEB10E0FE0184910E941005E8
S1130AF02196C017D107C1F70E9422050E944A051A
S1130B00DF91CF911F910F91089580930001089573
S1130B109F92AF92BF92CF92DF92EF92FF920F9388
S1130B201F93CF93DF93082F80910001882309F44A
S1130B3099C060910101809102010E9428050E94E0
S1130B40EF0480E40E941005C02FD0E08E01000F56
S1130B50111F000F111F000F111F04541F4FCC0F42
S1130B60DD1FCC0FDD1FCC0FDD1FCC53DF4F680121
S1130B70F6012491822F827090E0880F991F20FB48
S1130B80AA24A0F8B12C8A0D9B1D422F447050E07A
S1130B90440F551F440F551F840F951F287030E0D4
S1130BA0220F331F220F331F220F331F820F931F75
S1130BB0982E990C980E892D0E941005892D0E945B
S1130BC01005FFEFCF1ADF0ACC16DD0689F60E9466
S1130BD02205609101016F5F809102010E94280546
S1130BE00E94EF0480E40E941005F80124912295EC
S1130BF02F70822F827090E0880F991F20FBEE24C3
S1130C00E0F8F12C8E0D9F1D422F447050E0440FEC
S1130C10551F440F551F840F951F287030E0220F75
S1130C20331F220F331F220F331F820F931FD82E1F
S1130C30DD0CD80E8D2D0E9410058D2D0E941005FF
S1130C400F5F1F4F0C171D0781F60E94220580912C
S1130C5002018E5F80930201809101018150809393
S1130C6001012CC060910101809102010E942805BC
S1130C700E94EF0480E40E94100510E0E801CC0F0C
S1130C80DD1FCC0FDD1FCC0FDD1FC454DF4F000F61
S1130C90111F000F111F000F111F0C531F4FFE01D6
S1130CA084910E9410052196C017D107C1F70E94B4
S1130CB02205809102018F5F80930201DF91CF9121
S1130CC01F910F91FF90EF90DF90CF90BF90AF9066
S1130CD09F900895CF93DF93EC018881882331F0AE
S1130CE021960E94880589918111FBCFDF91CF91D4
S1130CF008952F923F924F925F926F927F928F92BC
S1130D009F92AF92BF92CF92DF92EF92FF920F9396
S1130D101F93CF93DF93CDB7DEB764970FB6F894E4
S1130D20DEBF0FBECDBFFE01B996019111915F01E7
S1130D30812C212C612C512C712C0F2EF0E39F2E31
S1130D40F02D6894442444F86894332433F801C0A3
S1130D50860178012FEFE21AF20AF80184918823C0
S1130D6009F4CFC0853209F09FC06801F2E0CF0ECC
S1130D70D11CF7018491282F30E0205331092A3007
S1130D80310508F09FC08B877C86CE010B960E94AC
S1130D909A07882E0D5F1F4FF6018491893609F456
S1130DA0A4C028F48236A9F1833601F1D2CF833767
S1130DB031F0883751F18F3661F623C08601F50191
S1130DC00190F081E02D22E0A20EB11C80818823E5
S1130DD009F4BFCF7F019FEFE91AF90A0E94880541
S1130DE0F70181917F018111F9CFB3CF68018501AA
S1130DF00E5F1F4FF50180810E948805580186010E
S1130E00A8CF68018601432D74C068018601442D72
S1130E1070C0F50180819181F2E0AF0EB11C42E017
S1130E20522DBE016F5F7F4F0E94CA07FE013196AB
S1130E30862D952D01C0CA01AC014F5F5F4F2191F2
S1130E402111F9CF282D30E0821793073CF5881A39
S1130E50282D30E01216130654F4FE013B96CF0100
S1130E60880D911D91928E179F07E1F702C0262DE0
S1130E70352DEBE0F0E0EC0FFD1FE20FF31F1082C5
S1130E80BE016F5F7F4FCE010B960E94B807BE0173
S1130E90655F7F4FCE0101960E94C307CE01019684
S1130EA00E946A06872C55CF0E948805870151CF7E
S1130EB0F5018081918122E0A20EB11C860142E0FD
S1130EC0522DAFCF893699F030F4823689F38336C8
S1130ED009F48DCF3DCF833709F470CF883709F4F7
S1130EE095CF8F3609F034CF8DCF4AE002C086010A
S1130EF04AE050E0F50180819181E2E0AE0EB11C40
S1130F0090CF64960FB6F894DEBF0FBECDBFDF91CD
S1130F10CF911F910F91FF90EF90DF90CF90BF90F2
S1130F20AF909F908F907F906F905F904F903F9085
S1130F302F900895FC0188279927E8942191203265
S1130F40E9F3293010F02E30C8F32B3241F02D3262
S1130F5039F4689404C00E94E007820F911D219126
S1130F6020532A30C0F31EF4909581959F4F089525
S1130F70FB01DC010D900020E9F7119701900D921F
S1130F800020E1F70895FB01DC0101900D9200209F
S1130F90E1F708954532510520F4423010F00C94E5
S1130FA0D507FB011082CB010895BB274A3031F4E9
S1130FB0992322F4BDE2909581959F4F0C94E90703
S1130FC07AE0979F902D879F802D910D112408958D
S1130FD0BB27FB015527AA27880F991FAA1FA4170F
S1130FE010F0A41B83955051B9F7A05DAA3308F003
S1130FF0A95DA193009779F7B111B1931192CB0137
S11310000C940208DC01FC01672F71917723E1F74E
S1131010329704C07C916D9370836291AE17BF07C1
S10B1020C8F30895F894FFCF12
S9030000FC
