:100000000C9443000C9460000C9460000C9460000D
:100010000C9460000C9460000C9460000C946000E0
:100020000C9460000C9460000C9460000C946000D0
:100030000C9460000C94C0030C9460000C9460005D
:100040000C94DB030C9460000C9460000C94600032
:100050000C9460000C9460000C9460000C946000A0
:100060000C9460000C9460003603390342034B0388
:1000700054035D03660370037A0384038E039803BD
:10008000A203AC03B60311241FBECFEFD8E0DEBF3E
:10009000CDBF11E0A0E0B1E0E8EDF9E002C00590CD
:1000A0000D92A230B107D9F721E0A2E0B1E001C082
:1000B0001D92A732B207E1F70E940B030C94EA04E9
:1000C0000C9400001F93CF93DF93162FC42FD52FCE
:1000D000880F0E942804812F0E945A048D2F0E94AD
:1000E0005A048C2F0E945A040E94520480E0DF912F
:1000F000CF911F910895CF93DF93D62FC82FCC0FA8
:100100008C2F0E9428048D2F0E945A040E945204B2
:1001100081E08C0F0E944F040E946C04C82F0E9443
:100120007604D82F0E9452048C2F90E0982F8827B5
:100130008D2BDF91CF910895CF93643038F54360D4
:10014000242BA9015160611103C0A90151640EC0A3
:10015000613019F4A901516509C0623019F4A9018F
:10016000516604C0633011F4A9015167C82F50686B
:1001700061E00E9462008FEC97E00197F1F700C008
:10018000000060E08C2F0E947B0002C080E090E0C5
:10019000CF910895E0EBF0E090819368908397E22F
:1001A0009093B1008093B300089583E08093B000F2
:1001B00087E28093B1001092B300089585B1806208
:1001C00085B90E948D04833551F485B18F7D85B941
:1001D00085B1816085B981E080930D010895109209
:1001E0000D0108950E948D04803509F049C00E94D8
:1001F0008D04813381F482E090E09093010180933B
:1002000000018AE090E0909308018093070182E06A
:1002100080930D010895823381F483E090E0909300
:1002200001018093000184E690E09093080180939F
:10023000070182E080930D010895833381F484E007
:1002400090E0909301018093000188EC90E09093FE
:1002500008018093070182E080930D0108958433A3
:1002600079F485E090E0909301018093000188E2A9
:1002700090E0909308018093070182E080930D0144
:1002800008950E948D048E3441F483E080930D0123
:1002900010920C0110920B010895893589F5809117
:1002A0000001909101010397B1F484E690E09093EE
:1002B00026018093250188EC90E09093240180939F
:1002C000230183E080930D0181E090E090930C0185
:1002D00080930B01089582E390E090932601809330
:1002E000250184E690E0909324018093230183E02C
:1002F00080930D0181E090E090930C0180930B01BD
:10030000089585B1826085B987E080930D01809161
:1003100021018093060108958091060181111BC07F
:1003200085B18D7F85B98091020190910301A091E3
:100330000401B0910501181619061A061B0644F4AB
:100340001092020110920301109204011092050113
:1003500088E080930D01089520E032E040E860E0FD
:1003600088E40E949C0090931301809312019C01E9
:10037000AAEFB0E00E94B9042FEF3FE740E050E061
:100380000E949404822F932FA42FB52F2093020153
:1003900030930301409304015093050140912501DE
:1003A0005091260160E070E084179507A607B70713
:1003B0001CF428E020930D01481759076A077B07B2
:1003C000A4F488B1826088B989E080930D012091FE
:1003D00023013091240136952795ABE7B4E10E94C3
:1003E000B90496958795809306012FEF83EC99E0E9
:1003F000215080409040E1F700C0000008958091B6
:100400000601811106C085B1846085B98AE08093B8
:100410000D0108950E948D048434C1F40E948D045E
:100420008D34A1F485B18B7F85B98BE080930D016C
:10043000209123013091240136952795ABE7B4E153
:100440000E94B9049695879580930601089580913E
:100450000601811106C08CE080930D0182E080933B
:100460000601089588B18D7F88B9809106018111B8
:1004700003C08DE080930D01089580910701909154
:1004800008010E94CA000E948D04803551F40E9428
:100490008D04863431F48EE080930D0182E08093E8
:1004A0000601089580E090E00E94D5008091060149
:1004B000811114C010920D0110920C0110920B01C9
:1004C0001092020110920301109204011092050192
:1004D00085B18E7F85B985B1806285B90895CF9346
:1004E000DF93DC018C918D3229F060E070E0C1E097
:1004F000D0E004C061E070E0CFEFDFEF20E030E05B
:1005000013C0A901440F551F220F331F220F331FA1
:10051000220F331F420F531F292F30E02053310980
:10052000240F351F6F5F7F4FFD01E60FF71F90818E
:100530009111E7CF2C9FC0012D9F900D3C9F900DF6
:100540001124DF91CF9108950E948D048E34F1F42F
:100550000E948D048934D1F40E948D04EEE1F1E013
:1005600080831182CF010E946F02909322018093B9
:10057000210180910B0190910C01892B21F484E0E1
:1005800080930D01089586E080930D010895CF9327
:10059000DF930E948D048435C1F40E948D04C4E170
:1005A000D1E088830E948D0489830E948D048A8310
:1005B0001B82CE010E946F02909326018093250139
:1005C000892B19F085E080930D01DF91CF9108957B
:1005D000CF93DF930E948D048235D1F40E948D0465
:1005E000CEE0D1E088830E948D0489830E948D042F
:1005F0008A831B82CE010E946F0290932401809314
:10060000230180931D01892B19F086E080930D0151
:10061000DF91CF9108951092C1008FEF84B915B882
:100620009AE097B991EF98B98AB98BB995E0909310
:10063000810081E080936F0026EF32EC30938500DB
:100640002093840095BD80936E00789487E690E0B7
:100650000E9480040E94FC03E0910D01F0E0EF3065
:10066000F105D0F7EC5CFF4F0C94B3040E94DE0060
:10067000F3CF8091090190910A01892B69F70E94BB
:10068000F200EACF8091090190910A01892B21F7AC
:100690000E944101E1CF8091090190910A01892BCB
:1006A000D9F60E94A402D8CF8091090190910A0145
:1006B000892B91F60E94C702CFCF809109019091BA
:1006C0000A01892B49F60E94E802C6CF80910901F0
:1006D00090910A01892B09F0BFCF0E948101BCCF04
:1006E0008091090190910A01892B09F0B5CF0E94F0
:1006F0008C01B2CF8091090190910A01892B09F0F8
:10070000ABCF0E94AC01A8CF8091090190910A0162
:10071000892B09F0A1CF0E94FF019ECF8091090192
:1007200090910A01892B09F097CF0E940A0294CF79
:100730008091090190910A01892B09F08DCF0E94C7
:1007400027028ACF8091090190910A01892B09F033
:1007500083CF0E94320280CF8091090190910A01DB
:10076000892B09F079CF0E943D0276CF8091090153
:1007700090910A01892B09F06FCF0E9452026CCF31
:100780001F920F920FB60F9211248F939F9386EFB3
:1007900092EC9093850080938400809106018823D9
:1007A00019F08150809306019F918F910F900FBE99
:1007B0000F901F9018951F920F920FB60F92112451
:1007C0008F939F9334990AC088B1886088B981E07B
:1007D00090E090930A018093090107C010920A01EA
:1007E0001092090188B1877F88B99F918F910F90EE
:1007F0000FBE0F901F9018951092B90088E4809357
:10080000B800089594EA9093BC009091BC0099239D
:10081000E4F79091B900987F983011F0903191F4FD
:100820008093BB0084E88093BC008091BC00882347
:10083000E4F78091B900887F883131F0803431F459
:1008400080E0089581E0089580E0089581E00895B2
:1008500094EA9093BC009091BC009923E4F79091A6
:10086000B900987F983011F0903191F78093BB00D8
:1008700094E89093BC009091BC009923E4F7909188
:10088000B900987F903211F0983541F494E9909333
:10089000BC009091BC0094FDFCCFDACF08950E947B
:1008A0000204089584E98093BC008091BC0084FD1B
:1008B000FCCF08958093BB0084E88093BC008091B6
:1008C000BC008823E4F78091B900887F883211F05A
:1008D00081E0089580E0089584EC8093BC008091CD
:1008E000BC008823E4F78091BB00089584E88093DE
:1008F000BC008091BC008823E4F78091BB00089580
:100900009093C5008093C4001092C00088E180934A
:10091000C10086E08093C20008958091C0008823C2
:10092000E4F78091C6000895052E97FB1EF400940D
:100930000E94AB0457FD07D00E94C80407FC03D0F7
:100940004EF40C94AB0450954095309521953F4F53
:100950004F4F5F4F089590958095709561957F4FAB
:100960008F4F9F4F0895EE0FFF1F0590F491E02DDC
:100970000994A29FB001B39FC001A39F700D811D78
:100980001124911DB29F700D811D1124911D089598
:10099000A1E21A2EAA1BBB1BFD010DC0AA1FBB1F83
:1009A000EE1FFF1FA217B307E407F50720F0A21BF5
:1009B000B30BE40BF50B661F771F881F991F1A9462
:1009C00069F760957095809590959B01AC01BD018C
:0809D000CF010895F894FFCF58
:0209D80002001B
:00000001FF
