:100000000C94C3020C94E0020C94E0020C94E00205
:100010000C94E0020C94E0020C94E0020C94E002D8
:100020000C94E0020C94E0020C94E0020C94F404B2
:100030000C94E0020C94E0020C94E0020C94E002B8
:100040000C94E0020C94E0020C94E0020C94E002A8
:100050000C94E0020C94E0020C94E0020C94E00298
:100060000C94E0020C94E00200000000000000008C
:10007000002F000000000700070000147F147F1409
:1000800000242A7F2A12006264081323003649558F
:10009000225000000503000000001C224100000067
:1000A00041221C000014083E08140008083E0808FD
:1000B000000000A060000008080808080000606058
:1000C0000000002010080402003E5149453E000097
:1000D000427F4000004261514946002141454B3179
:1000E000001814127F10002745454539003C4A4945
:1000F00049300001710905030036494949360006B7
:100100004949291E0000363600000000563600001E
:100110000008142241000014141414140000412299
:10012000140800020151090600324959513E007C71
:100130001211127C007F49494936003E414141225B
:10014000007F4141221C007F49494941007F090944
:100150000901003E4149497A007F0808087F0000F4
:10016000417F4100002040413F01007F08142241AF
:10017000007F40404040007F020C027F007F040867
:10018000107F003E4141413E007F09090906003EC3
:100190004151215E007F09192946004649494931EC
:1001A0000001017F0101003F4040403F001F20400F
:1001B000201F003F4038403F0063140814630007CD
:1001C0000870080700615149454300007F41410024
:1001D00000552A552A55000041417F0000040201C4
:1001E00002040040404040400000010204000020A2
:1001F00054545478007F48444438003844444420E0
:1002000000384444487F00385454541800087E098C
:1002100001020018A4A4A47C007F08040478000054
:10022000447D4000004080847D00007F1028440011
:100230000000417F4000007C04180478007C080422
:10024000047800384444443800FC2424241800185E
:10025000242418FC007C080404080048545454204A
:1002600000043F444020003C4040207C001C2040D3
:10027000201C003C4030403C004428102844001C16
:10028000A0A0A07C004464544C44000008774100C6
:100290000000006300000000417708000008040827
:1002A0000804003D4040207D003D4040403D00218D
:1002B00054545479007D1211127D0039444444395C
:1002C000003D4242423D000205020000007E01491D
:1002D0005573000000000000000000000000000056
:1002E0000000387CFEFEFEFC7C10008080C0808018
:1002F0008000071F1F1F1F1F0F02008080C0C0C08B
:10030000C0C0C0808000FEFF3F1F1F1F1F1F1F1F98
:10031000FFFF1F3F6060606060606060FFFF02FC85
:10032000E0E0E0E0E0E0E0E0FFFF000F070F0F0F8C
:100330000F0F0F0F0F0700008080C0C0C0C0C0C0EB
:10034000808000FCFF3F3F3F3F3F3F3F3F3FFFFF7D
:10035000C7FF303030303030303030FFCFFFFFE07B
:10036000E0E0E0E0E0E0E0E0FFFF01070F0F0F0F4B
:100370000F0F0F0F0F0703C0C0C0C0C0C0C0C0C068
:10038000C0C0C0FF7F3F3F3F3F3F3F3F3FFFFF01B8
:10039000000000000000E0781F030000000080F073
:1003A0007C0F030000000000000E0F0100000000A1
:1003B000000000008080C0C0C0C0C08080C0C0FEFF
:1003C000FF3F1F1F1F1F1F1F3FFFFFFFFF301018A2
:1003D000181818181031E1FFFFE0E0E0E0E0E0E07D
:1003E000E0F0FF01070F0F0F0F0F0F0F0F070700B0
:1003F000C0C0C0C0C0C0C0C0C0C0C000FF3F1F1F41
:100400001F1F1F1F1FFFFF003F1018181818181874
:1004100018F0E0FCFCE0E0E0E0E0E0E0E0FFFF0FEF
:100420000F070F0F0F0F0F0F0F070300000000C083
:10043000C0C0C0C0C0C0C0C0000000000000001F9D
:10044000DFFF3F1FFF1F1F1F00000080C0F09C87C1
:1004500083808080FF80808080F080000101010126
:1004600001E1E1E1FFFFE1E1E10F0F000000000029
:10047000000F0F0F0F0F0F0F0F0000C0C000808084
:10048000C0C0C0C0C08080FFFF3F3F3F3F3F3F3FF5
:100490003F3FFF0000000030303030303078CFFC7C
:1004A000FCE0E0E0E0E0E0E0E0E0FF0F0F070F0F2E
:1004B0000F0F0F0F0F0707C0C08080C0C0C0C0C0A3
:1004C000808080FFFF3F3F3F3F3F3F3F3F3FFF0177
:1004D000018080C04060603030180FF8FFE3E0E03A
:1004E000E0E0E0E0F0F0FE070F0F0F0F0F0F0F0F2F
:1004F0000F0F0F0000000000C0C0000000007F7F51
:100500007F7F7FFFFF000000000000000000FFFF72
:1005100000000000E0E0E0E0E0FFFFE0E0E0E00FEE
:100520000F0F0F0F0F0F0F0F0F0F00008080C0C0B5
:10053000C0C0C0C0808000FEFF7F3F3F3F3F3F3FC5
:100540003F3FFFFFFFFF0000000000000000000031
:10055000FFFFFFF0F0F0F0F0F0F0F0F0F8FF01072F
:100560000F0F0F0F0F0F0F0F0F0703AE2000B0C8B4
:10057000001040813FA1A6A83FA4D300D5F0D92206
:10058000DA12DB208D1411241FBECFEFD8E0DEBFBE
:10059000CDBF11E0A0E0B1E0E0E5FCE002C00590D5
:1005A0000D92AE34B107D9F721E0AEE4B1E001C05D
:1005B0001D92A735B207E1F70E94BB050C942606F1
:1005C0000C94000088B1806388B987B1806387B9D3
:1005D0001092B90080E28093B80084E08093BC0060
:1005E000089584EA8093BC00ECEBF0E080818823DE
:1005F000ECF788E78093BB0084E88093BC00ECEBC9
:10060000F0E080818823ECF7089584E98093BC00B2
:1006100008958093BB0084E88093BC00ECEBF0E08D
:1006200080818823ECF70895EF92FF920F931F9338
:10063000CF93DF937C01162F0E94F10280E00E948D
:100640000903112371F0E7011150012F10E00F5F32
:100650001F4F0E0D1F1D89910E940903C017D1075E
:10066000D1F70E940503DF91CF911F910F91FF9069
:10067000EF900895EF92FF920F931F93CF937C0119
:100680008B010E94F10280E40E940903C0E08C2FDC
:1006900090E08017910760F4F701E80FF91F80815F
:1006A0000E940903CF5F8C2F90E080179107A0F381
:1006B0000E940503CF911F910F91FF90EF90089535
:1006C000CF93DF9300D000D0CDB7DEB7813870F480
:1006D000683060F46055698391E29A838B838FE779
:1006E0008C8364E0CE0101960E9414030F900F905A
:1006F0000F900F90DF91CF91089560E080E00E940D
:1007000060030895CF93DF930E947D03C0E0D4E09F
:1007100061E070E081E090E00E943A032197C1F728
:100720000E947D03DF91CF9108951F93CF93DF93B4
:10073000CDB7DEB76C970FB6F894DEBF0FBECDBF56
:10074000182F0E94E202EBE6F5E0DE0111969E0111
:10075000245E3F4F84918D933196A217B307D1F752
:100760001C8F6CE1CE0101960E9414030E9482034B
:100770006C960FB6F894DEBF0FBECDBFDF91CF9160
:100780001F9108950F931F93CF93DF93C0EEC80F6F
:10079000C03600F50E94F10280E40E940903CF35C3
:1007A000B8F48C2F90E0EC01CC0FDD1FC80FD91FDF
:1007B000CC0FDD1F8E0108591F4FC259DF4FF801C2
:1007C00084910E9409030F5F1F4F0C171D07B9F793
:1007D0000E940503DF91CF911F910F910895CF9350
:1007E000DF93EC018881882331F021960E94C203B7
:1007F00089918111FBCFDF91CF910895CF93DF9342
:1008000000D0CDB7DEB791E899838A8362E0CE014C
:1008100001960E9414030F900F90DF91CF910895DD
:100820002F923F924F925F926F927F928F929F9200
:10083000AF92BF92CF92DF92EF92FF920F931F93EE
:10084000CF93DF9300D000D01F92CDB7DEB7E42E58
:10085000F12CA22EB12CAE18BF08B594A7943A2C57
:100860000695069506950983002309F448C02A8356
:100870006B834C012701612C712C212C022F01501C
:1008800010E00F5F1F4FBB24EA0CFB1C2394622D6A
:100890008B810E9460030E94F10280E40E940903A0
:1008A0003A81332329F163011D821C828C818315D7
:1008B00020F480E00E94090313C08C819D818E1575
:1008C0009F055CF4FC01EA19FB09EC0DFD1DE80D28
:1008D000F91D84910E94090303C080E00E9409036E
:1008E0008C819D8101969D838C8380179107F1F601
:1008F0000E940503640C751C99812912C7CF0F90C3
:100900000F900F900F900F90DF91CF911F910F914B
:10091000FF90EF90DF90CF90BF90AF909F908F901F
:100920007F906F905F904F903F902F900895FF922F
:100930000F931F93CF93DF93F82E162FD42FC22F30
:1009400008E22EE148E060E38091140190911501E6
:100950000E9410048F2D90E0DC01A55EBE4F880F31
:10096000991FFC01E050FF4F2EE14C9160E0808127
:1009700091810E941004612F70E0DB01A55EBE4FE3
:10098000660F771FFB01E050FF4F2EE14C9168E1AD
:10099000808191810E9410044D2F50E0DA01A55E04
:1009A000BE4F440F551FFA01E050FF4F2EE14C910E
:1009B00068E4808191810E9410042C2F30E0D901DD
:1009C000A55EBE4F220F331FF901E050FF4F2EE10D
:1009D0004C9160E6808191810E941004DF91CF915B
:1009E0001F910F91FF9008951F920F920FB60F92D3
:1009F00011242F933F934F935F936F937F938F9324
:100A00009F93AF93BF93EF93FF9380915001909189
:100A1000510101969093510180935001049709F57B
:100A20008091190190911A01909389008093880018
:100A30008091180188608093810010928500109247
:100A4000840080914E01813061F420914F014091EA
:100A5000530160915501809152010E9497041092B8
:100A60004E018091500190915101059709F063C0AA
:100A700080911601909117019093890080938800CE
:100A80008DE0809381001092850010928400809107
:100A90004F018F5F80934F011092510110925001CE
:100AA0008A3039F4809153018F5F80935301109203
:100AB0004F0180915301863039F4809155018F5F49
:100AC0008093550110925301809155018A3039F479
:100AD000809152018F5F8093520110925501809155
:100AE0005201863039F4809156018F5F8093560110
:100AF00010925201809156018A3041F48091540144
:100B00008F5F809354011092560112C091E02091A2
:100B10005401223009F090E0992351F091E08430A3
:100B200009F090E0992321F010925401109256019F
:100B300081E080934E01FF91EF91BF91AF919F9122
:100B40008F917F916F915F914F913F912F910F9076
:100B50000FBE0F901F901895CF93C0E06C2F80E0D0
:100B60000E94600386E291E00E94EF03CF5FC830ED
:100B7000A9F7CF9108958FEA0E9495030E94AC05D2
:100B800067E080E00E9460038DE391E00E94EF0344
:100B90000E947D0384EC0E94FE0388E090E00E94A6
:100BA00008068093180186E090E00E94100690935A
:100BB0001A018093190184E090E00E94100690933E
:100BC0001701809316018DE08093810080911601BA
:100BD00090911701909389008093880082E0809320
:100BE0006F00789497E090934F018093530183E0D6
:100BF0008093520184E08093550110925401109229
:100C0000560127E042E064E083E00E949704FFCFB2
:100C1000F999FECF92BD81BDF89A992780B50895C4
:100C2000A8E1B0E042E050E00C941806DC01CB01F2
:100C3000FC01F999FECF06C0F2BDE1BDF89A3196EC
:100C400000B40D9241505040B8F70895F894FFCF8A
:100C50002A05F304B7047B042B04EF03B3037703E3
:100C60003603FA02D202E8030110270D0B0C0C1018
:100C70000C0C0C0D0C0820202020202020202020EF
:100C80002020202020202020202020200049465302
:0E0C90005020526567756C6172203430000090
:00000001FF
