:100000000C9434000C9451000C9451000C94510049
:100010000C9451000C9451000C9451000C9451001C
:100020000C9451000C9451000C9451000C9451000C
:100030000C9451000C9451000C9451000C945100FC
:100040000C9451000C9451000C9451000C945100EC
:100050000C9451000C9451000C9451000C945100DC
:100060000C9451000C94510011241FBECFEFD8E026
:10007000DEBFCDBF11E0A0E0B1E0ECECFAE002C0E1
:1000800005900D92AE30B107D9F721E0AEE0B1E0B6
:1000900001C01D92A731B207E1F70E94A8010C949C
:1000A00064050C9400001F93CF93DF93162FC42F89
:1000B000D52F880F0E947102812F0E94A5028D2FDB
:1000C0000E94A5028C2F0E94A5020E949C0280E043
:1000D000DF91CF911F910895CF93DF93D62FC82F33
:1000E000CC0F8C2F0E9471028D2F0E94A5020E94BE
:1000F0009C0281E08C0F0E9499020E94B702D82FC7
:100100000E94C202C82F0E949C028C2F90E09D2B5F
:10011000DF91CF910895CF93C82F63605168462B2C
:1001200061E00E9453008FEC97E00197F1F700C067
:10013000000060E08C2F0E946C00CF910895611147
:1001400002C0289801C0289A9BB19F70282F207F59
:10015000922B9BB945E04A95F1F70000299A95E06A
:100160009A95F1F70000299840EF4A95F1F72BB1E5
:10017000922F9F7040E1849F90011124292B2BB96D
:1001800095E09A95F1F70000299A45E04A95F1F734
:100190000000299890EF9A95F1F7611108C084301A
:1001A00030F48FE39FE10197F1F700C0000008955C
:1001B000289829982FEF89EF90E0215080409040B7
:1001C000E1F700C000008BB18F7080638BB925E030
:1001D0002A95F1F70000299A85E08A95F1F7000049
:1001E000299890EF9A95F1F78FE19EE40197F1F746
:1001F00000C0000095E09A95F1F70000299A25E0EB
:100200002A95F1F70000299880EF8A95F1F78FE1A0
:1002100093E00197F1F700C0000095E09A95F1F79F
:100220000000299A25E02A95F1F70000299880EF2F
:100230008A95F1F78BB18F7080628BB995E09A95B2
:10024000F1F70000299A25E02A95F1F70000299896
:1002500080EF8A95F1F760E088E20E949F0060E0FD
:1002600088E00E949F0060E081E00E949F0060E0C3
:100270008CE00E949F0060E080E80E949F0008954B
:10028000CF93DF93EC018881882339F0219661E0D8
:100290000E949F0089918111FACFDF91CF9108953B
:1002A000AC01FB01DB019B012B5F3F4F80E38D9392
:1002B000A217B307E1F79A01ADECBCEC0E9455051B
:1002C0009695879596958795969587959C01220F8B
:1002D000331F880F991F880F991F880F991F820F4E
:1002E000931F9A01281B390BC901805D81939A01E4
:1002F0000E945505AC0156954795569547955695DC
:10030000479541155105B9F60895CF93DF930E94A3
:10031000D003DC01CB0162E171E00E945001C2E137
:10032000D1E08B810E94DA028A810E94DA0280E0A9
:1003300091E00E94E20289810E94DA0288810E9493
:10034000DA0282E091E00E94E202DF91CF9108950B
:100350008FEF84B915B88AB98BB91092C10090E3B8
:1003600097B988B987E690E00E94CD020E94D80034
:100370000E944402D12CC12CB12CA12CC2E3D0E0AC
:10038000ED2CFC2C0B2D1A2D40E052E060EC88E4A3
:100390000E948B00BC01990F880B990B0E940104ED
:1003A00020E030E048EC52E40E948D0420E030E090
:1003B00040E05EE30E948D0420E030E04AE754E430
:1003C0000E945E039B01AC010E948D049B01AC0165
:1003D0006E2D7F2D802F912F0E94F202E62EF72E98
:1003E000082F192F219781F620E030E048E452E4ED
:1003F0006E2D7F2D802F912F0E945E030E9400059D
:1004000023EF34E045EB5FE30E945E0320E030E041
:1004100048EC52E40E948D040E94D0032B013C0161
:1004200060E080E80E949F0085E091E00E9440012A
:100430006EE071E0C2010E945001CEE0D1E061E0C7
:100440008B810E949F0061E08A810E949F0080E072
:1004500091E00E94400161E089810E949F0061E07B
:1004600088810E949F00B20180E090E00E94FF031B
:100470000E9485012FEF83ED90E321508040904052
:10048000E1F700C000007ACF1092B90088E48093B1
:10049000B800089594EA9093BC00ECEBF0E09081F2
:1004A0009923ECF79091B900987F983011F0903132
:1004B000A1F48093BB0084E88093BC00ECEBF0E0F7
:1004C00080818823ECF79091B900987F983139F0BA
:1004D00081E0903429F480E0089581E0089580E07F
:1004E0000895CF93DF93ECEBF0E024EAA9EBB0E0C2
:1004F000CBEBD0E034E844E9208390819923ECF7FA
:100500009C91987F983011F09031B1F788833083B7
:1005100090819923ECF79C91987F903211F0983557
:1005200029F44083908194FDFDCFE6CFDF91CF91F8
:1005300008950E944A02089584E98093BC00ECEB80
:10054000F0E0808184FDFDCF08958093BB0084E8B6
:100550008093BC00ECEBF0E080818823ECF7909175
:10056000B900987F81E0983209F480E0089584EC26
:100570008093BC00ECEBF0E080818823ECF7809165
:10058000BB00089584E88093BC00ECEBF0E0808130
:100590008823ECF78091BB0008959093C500809369
:1005A000C4001092C00088E18093C10086E080936F
:1005B000C2000895E0ECF0E0908195FFFDCF8093BC
:1005C000C6000895CF93DF93EC018881882331F032
:1005D00021960E94DA0289918111FBCFDF91CF91A0
:1005E00008955058BB27AA270E9409030C9453046E
:1005F0000E94450438F00E944C0420F039F49F3FDB
:1006000019F426F40C9442040EF4E095E7FB0C94E4
:100610003C04E92F0E94640458F3BA176207730779
:100620008407950720F079F4A6F50C9486040EF45F
:10063000E0950B2EBA2FA02D0B01B90190010C01F2
:10064000CA01A0011124FF27591B99F0593F50F40A
:10065000503E68F11A16F040A22F232F342F442762
:10066000585FF3CF469537952795A795F04053955A
:10067000C9F77EF41F16BA0B620B730B840BBAF02A
:100680009150A1F0FF0FBB1F661F771F881FC2F795
:100690000EC0BA0F621F731F841F48F487957795A9
:1006A0006795B795F7959E3F08F0B0CF9395880F63
:1006B00008F09927EE0F9795879508950E94720389
:1006C0000C9453040E944C0458F00E94450440F0DE
:1006D00029F45F3F29F00C943C0451110C948704D9
:1006E0000C9442040E94640468F39923B1F35523E7
:1006F00091F3951B550BBB27AA2762177307840735
:1007000038F09F5F5F4F220F331F441FAA1FA9F3CA
:1007100035D00E2E3AF0E0E832D091505040E695B8
:10072000001CCAF72BD0FE2F29D0660F771F881F19
:10073000BB1F261737074807AB07B0E809F0BB0B0C
:10074000802DBF01FF2793585F4F3AF09E3F510520
:1007500078F00C943C040C9487045F3FE4F3983EDB
:10076000D4F3869577956795B795F7959F5FC9F709
:10077000880F911D9695879597F90895E1E0660F8A
:10078000771F881FBB1F621773078407BA0720F003
:10079000621B730B840BBA0BEE1F88F7E09508956C
:1007A0000E946C0488F09F5798F0B92F9927B75191
:1007B000B0F0E1F0660F771F881F991F1AF0BA9505
:1007C000C9F714C0B13091F00E948604B1E00895D9
:1007D0000C948604672F782F8827B85F39F0B93FCB
:1007E000CCF3869577956795B395D9F73EF49095B8
:1007F0008095709561957F4F8F4F9F4F0895E89436
:1008000009C097FB3EF490958095709561957F4F58
:100810008F4F9F4F9923A9F0F92F96E9BB27939506
:10082000F695879577956795B795F111F8CFFAF416
:10083000BB0F11F460FF1BC06F5F7F4F8F4F9F4F47
:1008400016C0882311F096E911C0772321F09EE8A5
:10085000872F762F05C0662371F096E8862F70E00B
:1008600060E02AF09A95660F771F881FDAF7880FE5
:100870009695879597F9089597F99F6780E870E0B6
:1008800060E008959FEF80EC089500240A94161606
:10089000170618060906089500240A94121613066E
:1008A000140605060895092E0394000C11F48823FC
:1008B00052F0BB0F40F4BF2B11F460FF04C06F5F18
:1008C0007F4F8F4F9F4F089557FD9058440F551FEE
:1008D00059F05F3F71F04795880F97FB991F61F0C2
:1008E0009F3F79F087950895121613061406551F39
:1008F000F2CF4695F1DF08C0161617061806991FA5
:10090000F1CF86957105610508940895E894BB2799
:1009100066277727CB0197F908950E94A0040C94CD
:1009200053040E94450438F00E944C0420F09523A3
:1009300011F00C943C040C94420411240C94870490
:100940000E94640470F3959FC1F3950F50E0551F0A
:10095000629FF001729FBB27F00DB11D639FAA2714
:10096000F00DB11DAA1F649F6627B00DA11D661F63
:10097000829F2227B00DA11D621F739FB00DA11D84
:10098000621F839FA00D611D221F749F3327A00D3E
:10099000611D231F849F600D211D822F762F6A2FDA
:1009A00011249F5750409AF0F1F088234AF0EE0F3F
:1009B000FF1FBB1F661F771F881F91505040A9F76C
:1009C0009E3F510580F00C943C040C9487045F3FDB
:1009D000E4F3983ED4F3869577956795B795F795A8
:1009E000E7959F5FC1F7FE2B880F911D9695879520
:1009F00097F9089519F416F40C9442040C944005E8
:100A00000E946C04B8F39923C9F3B6F39F57550BB2
:100A100087FF0E944E050024A0E640EA900180581E
:100A20005695979528F4805C660F771F881F20F0F5
:100A300026173707480730F4621B730B840B2029F5
:100A400031294A2BA69517940794202531254A274A
:100A500058F7660F771F881F20F0261737074807BB
:100A600030F4620B730B840B200D311D411DA095DA
:100A700081F7B901842F9158880F9695879508952D
:100A80009F3F31F0915020F4879577956795B79502
:100A9000880F911D9695879597F90895915050402C
:100AA000660F771F881FD2F70895A29FB001B39FEA
:100AB000C001A39F700D811D1124911DB29F700D67
:0C0AC000811D1124911D0895F894FFCFB2
:0E0ACC002E000A200049726D732841293D005A
:00000001FF
