:100000000C9434000C9449000C9449000C94490061
:100010000C9449000C9449000C9449000C9449003C
:100020000C9449000C9449000C9449000C9449002C
:100030000C9449000C9449000C9449000C9449001C
:100040000C9449000C9449000C9449000C9449000C
:100050000C9449000C9449000C9449000C944900FC
:100060000C9449000C94490011241FBECFEFD8E036
:10007000DEBFCDBF11E0A0E0B1E0E6EEF1E002C0EE
:1000800005900D92A830B107D9F70E944B000C944F
:10009000F1000C940000CF93DF9300D000D01F92AA
:1000A000CDB7DEB787E690E00E94890080E091E05E
:1000B0000E949E008DE00E9496002FEF83EC99E055
:1000C000215080409040E1F700C0000000E010E0C7
:1000D0000F5F1F4FBE016F5F7F4FC8010E94AD00D1
:1000E0008C810E9496008B810E9496008A810E94DA
:1000F000960089810E9496008DE00E9496002FEF65
:1001000083EC99E0215080409040E1F700C000006E
:10011000DFCF9093C5008093C4001092C00088E1A7
:100120008093C10086E08093C2000895E0ECF0E087
:10013000908195FFFDCF8093C6000895CF93DF9304
:10014000EC018881882331F021960E9496008991E4
:100150008111FBCFDF91CF910895AC01FB01DB0151
:100160009B012B5F3F4F80E38D93A217B307E1F70D
:100170009A01ADECBCEC0E94E200969587959695AD
:100180008795969587959C01220F331F880F991F9D
:10019000880F991F880F991F820F931F9A01281BA0
:1001A000390BC901805D81939A010E94E200AC0184
:1001B000569547955695479556954795411551053E
:1001C000B9F60895A29FB001B39FC001A39F700D1F
:1001D000811D1124911DB29F700D811D1124911D4F
:0601E0000895F894FFCF22
:0801E6007465737465200000CC
:00000001FF
